:020000040800F2
:10000000E8040020C50100082B140008C9120008EC
:1000100029140008D1020008A918000800000000F7
:100020000000000000000000000000002F14000885
:10003000D3020008000000002D140008311400084D
:10004000DF010008DF010008DF010008DF01000810
:10005000DF010008DF010008DF010008DF01000800
:10006000DF010008DF010008DF010008DF010008F0
:10007000DF010008DF010008DF010008DF010008E0
:10008000DF010008DF010008DF010008DF010008D0
:10009000DF010008DF010008DF010008DF010008C0
:1000A000DF01000805150008DF010008DF01000876
:1000B000DF010008DF010008DF010008DF010008A0
:1000C000DF010008DF010008DF010008DF01000890
:1000D000DF010008DF010008DF010008DF01000880
:1000E000DF010008DF010008DF010008DF01000870
:1000F000DF010008DF010008DF010008DF01000860
:10010000DF010008DF010008DF010008DF0100084F
:10011000DF010008DF010008DF010008DF0100083F
:10012000DF010008DF010008DF010008DF0100082F
:10013000DF010008DF010008DF010008DF0100081F
:10014000DF010008DF010008DF010008DF0100080F
:10015000DF010008DF010008DF010008DF010008FF
:10016000DF010008DF010008DF010008DF010008EF
:10017000DF010008DF010008DF01000800000000C7
:10018000DF010008DF010008DF010008DF010008CF
:10019000DF010008DF010008DF010008DF010008BF
:1001A000DF010008DF010008DF010008DFF810D0E0
:1001B00000F07CF80048004741190008AFF30080C8
:1001C000E80400200648804706480047FEE7FEE7AF
:1001D000FEE7FEE7FEE7FEE7FEE7FEE7FEE7FEE7F7
:1001E000D1140008AD0100082DE9F05F054600209C
:1001F00092469B4688460646814640241BE0284698
:1002000041464746224600F041F853465A46C01A36
:10021000914110D311461846224600F028F82D1AB5
:1002200067EB01084F4622460120002100F01FF82D
:1002300017EB00094E41201EA4F10104DFDC484603
:1002400031462A464346BDE8F09FD2B201E000F8AD
:10025000012B491EFBD270470022F6E710B513466A
:100260000A4604461946FFF7F0FF204610BD202A33
:1002700004DB203A00FA02F1002070479140C2F1FD
:10028000200320FA03F3194390407047202A04DB2F
:10029000203A21FA02F00021704721FA02F3D040FF
:1002A000C2F120029140084319467047064C074DA1
:1002B00006E0E06840F0010394E807009847103436
:1002C000AC42F6D3FFF776FF94190008B419000882
:1002D000FEE7704772B6FEE770B5044600F02CF9F1
:1002E0000546601C02D004480078044400F024F95C
:1002F000401BA042FAD370BD580000202DE9F84FF2
:10030000DFF8F4A1002201240AF1040B03254FF0C9
:100310000F090BF1040E00BF0B6804FA02F633401C
:10032000B3426FD10F7907F00307012F01D0022FDD
:1003300016D187684FEA420805FA08FC27EA0C073D
:10034000D1F80CC00CFA08FC4CEA070CC0F808C045
:100350004768B7430E79C6F3001696403E434660A1
:100360000E79F643B6070AD0C7684FEA420C05FA81
:100370000CF6B7438E6806FA0CF63E43C6600E795B
:1003800006F00306022E10D1D60800EB8608D8F836
:10039000206057074FEAD76C09FA0CF7BE430F6984
:1003A00007FA0CF73743C8F8207006684FEA420C8A
:1003B00005FA0CF7BE430F7907F0030707FA0CF7AD
:1003C000374307604E68F6001CD54C4E376847F43B
:1003D00080473760366822F0030706F480460096AF
:1003E000474E07EB060CDCF8086897073F0F09FA41
:1003F00007F826EA0806DFF80C81404503D14FF0E4
:10040000000841E072E0DFF80081404502D14FF082
:10041000010839E0DFF8F480404502D14FF00208CE
:1004200032E0DFF8EC80404502D14FF003082BE0CA
:10043000DFF8E080404502D14FF0040824E0DFF807
:10044000D880404502D14FF005081DE0DFF8CC8090
:10045000404502D14FF0060816E0DFF8C480404561
:1004600002D14FF007080FE0DFF8B880404502D115
:100470004FF0080808E0DFF8B080404502D14FF0A7
:10048000090801E04FF00A0808FA07F848EA0608E8
:10049000CCF80888DAF800605746D1F804C09E43CB
:1004A0005FEACC3C00D51E433E60DBF800605F464F
:1004B000D1F804C09E435FEA8C3C00D51E433E60E9
:1004C000DEF800607746D1F804C09E435FEACC2C8A
:1004D00000D51E433E60084F0C373E68D1F804C07B
:1004E0009E435FEA8C2C00D51E433E60521C102AAE
:1004F000FFF412AFBDE8F88F003C014044380240E1
:1005000000300140000002400004024000080240A8
:10051000000C02400010024000140240001802408B
:10052000001C024000200240002402400AB1816108
:1005300070470904FBE7000001488068704700002D
:100540005800002002488168027811448160704799
:10055000580000200B4810B5016841F4007101609B
:10056000016841F480610160016841F480710160BB
:10057000032000F071F8002000F006F800F024F8E5
:10058000002010BD003C024070B50D4D04464FF4F4
:100590007A712878B1FBF0F00A490968B1FBF0F0F4
:1005A00000F046FB48B9102C07D200222146501E0D
:1005B00000F032F800206C6070BD012070BD0000BA
:1005C00058000020640000200B4882B0016841F40C
:1005D00080410160006800F4804000900648001FE0
:1005E000016841F080510160006800F08050009087
:1005F000052002B000F030B844380240002809DB82
:1006000000F01F02012191404009800000F1E0202C
:10061000C0F8001170470000F0B40E4B1B680C4688
:10062000C3F30223C3F10705042D00D90425191DC6
:10063000072901D2002300E0DB1E012606FA05F19E
:10064000491E214099409E40761E16403143F0BC21
:1006500001F034B90CED00E0064900F0070208682B
:100660004FF6FF03184040EA0220034A1043086097
:10067000704700000CED00E00000FA052DE9F8439A
:100680001748016841F0805101600068154F00F083
:100690008050012600903E64FFF74EFF05464FF460
:1006A0007A78114C05E000BFFFF746FF401B40453C
:1006B0000DD86068C003F7D57E64FFF73DFF05469F
:1006C000464607E0FFF738FF401BB04202D903203F
:1006D000BDE8F88360688003F4D50020F8E70000E7
:1006E0004038024000000E42007000402DE9F04703
:1006F0000E46050065D0DFF81481D8F80000F7B287
:1007000000F00F00B04207D288F80070D8F800005F
:1007100000F00F00B04254D128683D4C810712D53B
:10072000400703D5206840F4E05020602878000797
:1007300003D5206840F4604020602068A96820F05C
:10074000F000084320602878C0072DD03049686841
:100750000839012812D0022813D0032811D00968C3
:10076000890700292DDA216821F003010143216066
:10077000FFF7E2FE814641F2883A0EE009688903FC
:10078000EFE709688901ECE7FFF7D6FEA0EB090166
:10079000514502D90320BDE8F0872068696800F060
:1007A0000C00B0EB810FEFD1D8F80010404601F0FB
:1007B0000F01B14207D90770006800F00F00B04286
:1007C00001D00120E7E72878400705D52068E968CF
:1007D00020F4E050084320602878000706D5206800
:1007E000296920F4604040EAC100206000F038F838
:1007F0002168084AC1F30311515CC84006490860EA
:1008000006480068FFF7C0FE0020C4E7003C024035
:10081000083802407C190008640000205C000020B9
:100820000448054900680968044AC1F38221515C03
:10083000C840704764000020083802408C19000846
:100840000448054900680968044AC1F34231515C13
:10085000C840704764000020083802408C19000826
:10086000154810B5006810F00C02144813D0144954
:10087000042A0FD0082A0ED10F4C241F22682368A7
:1008800002F03F025B0207D52068C0F38810A0FB8E
:10089000010106E0084610BD2168C1F38811A1FBE3
:1008A00000010023FFF7A0FC2168C1F30141491CAE
:1008B0004900B0FBF1F010BD083802400024F400FC
:1008C00040787D012DE9F84F04006ED02078DFF8E4
:1008D0004C93C007A9F104054AD009F1040001684E
:1008E000C1F38101012908D00068C0F3810002280A
:1008F0000AD1D9F80000400206D52868800337D510
:1009000060680028E1D033E06068B0F5803F10D027
:10091000B0F5A02F286810D020F480302860286817
:1009200020F4802028606068A8B1FFF705FE064625
:100930000DE0286840F48030F4E740F4802028601F
:10094000F7E700BFFFF7F8FD801B642873D828681D
:100950008003F7D50CE0FFF7EFFD064605E000BF8A
:10096000FFF7EAFD801B6428F0D828688003F7D4DD
:100970002078DFF8AC8280074FF0000A3ED5A74808
:10098000001D016811F00C0F08D00068C0F3810051
:1009900002280BD1D9F80000400207D4286880074C
:1009A00016D5E068012800D112E033E1E068B8B163
:1009B0000120C8F80000FFF7BFFD064605E000BFB4
:1009C000FFF7BAFD801B0228C0D828688007F7D53A
:1009D0002868216920F0F80040EAC10028600DE095
:1009E000C8F800A0FFF7A8FD064604E0FFF7A4FD45
:1009F000801B02281FD828688007F7D420780007BA
:100A000022D5864F87486169703771B10121016035
:100A1000FFF792FD064604E0FFF78EFD801B0228DB
:100A200009D838688007F7D50EE0C0F800A0FFF7B6
:100A300083FD064605E082E0FFF77EFD801B02286D
:100A40007DD838688007F7D42078400768D5DFF86C
:100A5000CCB100270BF13C0BDBF80000C0000BD43D
:100A6000DBF8001041F08051CBF80010DBF80000FB
:100A7000012700F0805000906B4E3068C00510D404
:100A8000306840F480703060FFF756FD009005E05C
:100A9000FFF752FD0099401A022850D83068C0056F
:100AA000F6D55E4EA0686C3601280FD00528306858
:100AB00010D020F001003060306820F00400306079
:100AC000A068B8B1FFF738FD00900FE0306840F043
:100AD0000100F4E740F004003060F7E7FFF72CFD79
:100AE0000099411A41F28830814266D83068800707
:100AF000F4D50EE0FFF720FD009007E0FFF71CFDA6
:100B00000099411A41F28830814256D830688007F6
:100B1000F4D42FB1DBF8001021F08051CBF8001095
:100B2000A069C8B33D49091D0968C1F381010229C3
:100B30004AD00228504607D0C8F8600000E03CE0E8
:100B4000FFF7FAFC04463BE04746C8F86000FFF7B1
:100B5000F3FC064605E000BFFFF7EEFC801B022811
:100B60002BD828688001F7D4D4E907010843A16A8B
:100B70002E4A490802EB0141626A41EA82110843A8
:100B800094F82C1040EA0161C9F800100120386681
:100B9000FFF7D2FC044606E03EE000BFFFF7CCFCC6
:100BA000001B022809D828688001F7D534E000BF6F
:100BB000FFF7C2FC001B022802D90320BDE8F88F12
:100BC00028688001F4D427E00128F7D0D9F8000084
:100BD000E26900F4800191421CD1226A00F03F01D9
:100BE000914217D147F6C071626A0140B1EB821F92
:100BF00010D1A26A4FF0FF3300F4403103EB5202F0
:100C0000B1EB024F06D194F82C1000F07060B0EBFD
:100C1000016F01D00120D1E70020CFE70438024066
:100C200000004742800E4742007000400000FFFF76
:100C300010B5401EB0F1807F01D3012010BD4FF0F0
:100C4000E02460610F21601700F038FE0020A061F1
:100C500007202061002010BD7047704770B590F8E4
:100C60003C20012A32D0012480F83C40022280F846
:100C70003D2003685A689D6822F070060A68324376
:100C80005A60134B02689A4214D0B2F1804F11D0CF
:100C9000104B9A420ED0104B9A420BD00F4B9A42F7
:100CA00008D00F4B9A4205D00E4B9A4202D00E4B01
:100CB0009A4204D1496825F080031943916080F875
:100CC0003D40002180F83C10084670BD022070BDF8
:100CD000000001400004004000080040000C0040FB
:100CE00000040140004001400018004010B504001D
:100CF00003D094F83D0010B107E0012010BD0020A2
:100D000084F83C00204600F01FF8022084F83D00E3
:100D1000211D206800F03CFC012084F8460084F886
:100D20003E0084F83F0084F8400084F8410084F8D5
:100D3000420084F8430084F8440084F8450084F8B5
:100D40003D00002010BD000008B500680B49884236
:100D500012D10B48016841F00101016000680122D5
:100D600000F00100009002211920FFF755FCBDE8BA
:100D700008401920FFF742BC08BD000000000140F8
:100D80004438024090F83D10012901D001207047FD
:100D9000022180F83D100168CA6842F00102CA6071
:100DA00000681149884214D0B0F1804F11D00F492A
:100DB00088420ED00E4988420BD00E49884208D096
:100DC0000D49884205D00D49884202D00C4988421D
:100DD00004D1816801F00701062903D0016841F0C0
:100DE0000101016000207047000001400004004044
:100DF00000080040000C0040000401400040014099
:100E000000180040704770B50446006801694FF053
:100E10000005C943890715D4C168C943890711D49E
:100E2000E91E016101202077206880698007204643
:100E300002D0FFF7E7FF04E000F098F8204600F04A
:100E400096F8257720680169C943490717D4C16816
:100E5000C943490713D46FF00401016102202077D0
:100E60002068806910F4407F204602D0FFF7CAFF57
:100E700004E000F07BF8204600F079F82577206840
:100E80000169C943090716D4C168C943090712D4C7
:100E90006FF008010161042020772068C069800795
:100EA000204602D0FFF7AEFF04E000F05FF82046D6
:100EB00000F05DF8257720680169C943C90617D499
:100EC000C168C943C90613D46FF01001016108203D
:100ED00020772068C06910F4407F204602D0FFF7D9
:100EE00091FF04E000F042F8204600F040F825773A
:100EF00020680169C943C90708D1C168C943C90746
:100F000004D1891E0161204600F032F82068016991
:100F1000C943090609D4C168C943090605D46FF05D
:100F2000800101612046FFF797FE20680169C943EF
:100F3000490609D4C168C943490605D46FF0400188
:100F40000161204600F05DF820680169C943890607
:100F50000BD4C168C943890607D46FF02001016131
:100F60002046BDE87040FFF778BE70BD70477047FF
:100F700000680B49884212D10A480168491C016087
:100F80000168094AB1FBF2F302FB13110160818889
:100F9000491C81808188C9B2818000F0A1BA704764
:100FA0000000014000000020A086010070B504464A
:100FB00090F83C00012812D0012584F83C50022012
:100FC00084F83D00204600F051FB01004FF0000086
:100FD00007D084F83D5084F83C00012070BD022009
:100FE00070BD2168CA6822F04002CA602168CA68E0
:100FF00022F48042CA6084F83D5084F83C0000200E
:1010000070BD704770B5040004D094F83D00002511
:1010100010B106E0012070BD84F83C50204600F07D
:1010200023F8242084F83D002068C16821F4005191
:10103000C160204600F080FB2068016921F49041E6
:1010400001612068416921F02A0141612068C1687D
:1010500041F40051C1602564202084F83D0084F8EB
:101060003E00002070BD000010B586B0044614217B
:101070006846FFF7F1F814492068884221D11348E7
:101080000021026842F010020260006800F01000C7
:1010900005900E481438026842F0010202600068B0
:1010A00000F0010005904FF4C06000900220CDE9EF
:1010B0000101032003900720049069460448FFF7CC
:1010C0001DF906B010BD0000001001404438024078
:1010D000000002402DE9F843044690F83D001F4609
:1010E00016460D4620284CD1C5B1BEB194F83C003F
:1010F000012846D0012084F83C004FF00008C4F8D5
:101100004080212084F83D00FFF716FAA68481462E
:10111000E684A068B0F5805F03D004E00120BDE85C
:10112000F883206928B12E465FF0000584F83C80E2
:101130000EE00026FAE78021204600F083FBA0B9EC
:10114000AEB116F8010B21684860E08C401EE084C7
:10115000E08C4B464FF0000200970028EBD14FF097
:101160004001204600F06EFB30B10320D7E735F890
:10117000020BC0F30800E6E7202084F83D000020C1
:10118000CDE70220CBE7000010B581884FF4B472A0
:10119000914204D3B1FBF2F302FB13128280C188A7
:1011A0006422652905D30189B1FBF2F302FB131315
:1011B00003810189652904D3B1FBF2F302FB131209
:1011C00002810189DFED3D0A00EE101AC188DFEDD2
:1011D0003C1AB8EE400AC1F1640183883C2220EE3B
:1011E000200A00EE901AB3FBF2F1F8EEE00AB3FB2E
:1011F000F2F420EE801A02FB14329FED322AC1EE87
:10120000210A01EE102A0529B8EEC11A70EE601A03
:1012100061EE811A81EE821A42D2DFE801F0030BFF
:101220001A272F00BDEEC00A10EE101A30EE810A08
:10123000017006E030EE411ABDEEC11A11EE101A2F
:101240000170BDEEC00A10EE101ABDEEE00A41704A
:1012500022E0FDEEE01ABDEEC00A11EE901A017018
:1012600010EE101A30EE810A417013E0FDEEE00A34
:1012700010EE901A70EE410A017006E030EE811A0D
:10128000BDEEC11A11EE101A0170FDEEE00A10EE6B
:10129000901A4170BDEEC00A10EE101A817010BD98
:1012A000FDEEC01AFDEEE00A30EE410A11EE901A92
:1012B000017010EE901A4170ECE7000033332340C8
:1012C0000000C84200007042FEE7000010B50F4861
:1012D0000F4902788B889A4201D2012300E0002353
:1012E0000C4AC2F8A83243788C88A34201D2012369
:1012F00000E00023C2F8AC3280788988884201D2AD
:10130000012000E00020C2F8B00210BD6C000020F7
:10131000000000200080434230B587B014216846A9
:10132000FEF79AFF1848016841F004010160016866
:1013300001F004010591016841F08001016001683C
:1013400001F080010591016841F001010160006830
:101350004FF4E05400F0010005900120CDE9004079
:10136000022002900320094D039069462846FEF7AB
:10137000C5FF012221462846FFF7D8F80448016D31
:101380000448884707B030BD30380240001C024096
:1013900000000020CD12000830B587B01421684647
:1013A000FEF75AFF0024114805940F490694816006
:1013B000B321C0E903140A21C0E905148021C0E962
:1013C000074108300546FFF791FC0094694628461E
:1013D0000194FFF7EBFD059405A928460694FFF755
:1013E0003DFC07B030BD00000000014000000020BF
:1013F0000C4810B50A4901604FF4E1314160002109
:1014000081600C22C160C0E904128161C161FFF7F3
:10141000F9FD002803D0BDE81040FEF75BBF10BD0A
:1014200000100140A0000020FEE7FEE77047704773
:10143000FFF788B870B592B030216846FEF70CFF10
:1014400014210CA8FEF708FF1F480025016841F091
:1014500080510160006800F0805011901B480168C5
:1014600041F4404101600068022400F440401190C2
:1014700001200090000401908001CDE906400F2674
:101480000896D820CDE9090404200B906846FFF7A0
:1014900019FA08B172B6FEE7FFF7F0F808B172B6B4
:1014A000FEE74FF4A050CDE90E504FF48050CDE947
:1014B0000C64109005210CA8FFF718F9002801D042
:1014C00072B6FEE712B070BD4038024000700040B6
:1014D0000248016841F470010160704788ED00E046
:1014E00070B50024054E064D04E000BF56F82400F8
:1014F0008047641C686DA042F8DC70BD7800002055
:10150000000000200148FFF77EBC0000080000201A
:1015100010B5094C616D0A2904DDBDE8104007A033
:1015200000F0C4B90F4A42F821000FA000F0BEF944
:10153000606D401C606510BD000000204552524F98
:1015400052205245474953544552202D2D2D2D2DC3
:101550002D2D2D2D2D2D2D2D2D2D2D202046554C75
:101560004C0A000078000020504153532052454758
:101570004953544552202D2D2D2D2D2D2D2D2D2D02
:101580002D2D2D2D2D2D2020504153530A000000CC
:10159000F0B50268254C264D264E274F274B4FF0BD
:1015A000804CA04209D0604507D0A84205D0B04287
:1015B00003D0B84201D0984204D122F0700E4A689C
:1015C00042EA0E02A0421BD0604519D0A84217D0B3
:1015D000B04215D0B84213D0984211D0184DA8424D
:1015E0000ED0184DA8420BD0174DA84208D0174D69
:1015F000A84205D0164DA84202D0164DA84203D1EC
:1016000022F44075CA682A434D6922F080022A43B9
:1016100002608A68C2620A688262A04201D098426F
:1016200001D10969016301214161F0BD0000014060
:101630000004004000080040000C0040000401408D
:1016400000400140004401400048014000180040B3
:10165000001C00400020004010B5846842EA0322CC
:1016600024F47F440A432243826010BD10B503680E
:101670009A6822F070044A68224322F007040A683C
:1016800022439A604A6812F00F0F30D11211082AD3
:101690002DD2DFE802F02C2C2C2C0B2127040B6917
:1016A000D1E902210068FFF7D7FF20E00A68052A88
:1016B00010D00268136A146A24F0010414620268EC
:1016C0009469096924F0F00444EA01119161006809
:1016D00003620CE0012010BD0A698968006800F00F
:1016E00008F804E00A698968006800F013F800202F
:1016F00010BD10B5036A046A24F001040462846911
:1017000024F0F00444EA021423F00A020A4384613C
:10171000026210BD10B5036A23F0100303628369EF
:10172000046A23F4704343EA023224F0A00343EA3C
:1017300001118261016210BD70B504460068016943
:10174000E26821F44051114301612169A068E26916
:1017500008436169114308432168CA6849F20C6370
:101760009A430243CA6020684169A26921F440712A
:101770001143416131492068884202D03049884292
:1017800002D1FFF75DF801E0FFF74AF8E2690023B4
:10179000192164253226B2F5004F626828D0A0FBDB
:1017A0000101930F9200FEF71FFD0146B0FBF5F01B
:1017B0006FF01802504301EB800006EB0010B0FB05
:1017C000F5F000F0F002B1FBF5F002EB0012B1FB16
:1017D000F5F06FF01803584301EB800006EB0010A2
:1017E000B0FBF5F000F00F0021681044886070BD78
:1017F000A0FB010192185B41FEF7F6FC0146B0FB2D
:10180000F5F00201B1FBF5F06FF01803584301EB5E
:10181000800006EBC000B0FBF5F000F0F80002EB32
:101820004002B1FBF5F0584301EB800006EBC0002D
:10183000B0FBF5F000F00700D6E700000010014013
:10184000001401402DE9F041984617460E46044623
:10185000069D1DE0681C1BD02DB1FEF76DFEA0EBB0
:101860000800A84214D92068C16821F4D071C16071
:101870002068416921F001014161202084F83D0088
:1018800084F83E00002084F83C000320BDE8F0818D
:101890002068006836EA000004D00020B842D9D0A1
:1018A0000020F3E70120F9E7FEE70000014A0249C2
:1018B00000F023B81D190008680000200907090E70
:1018C000002804DB00F1E02080F80014704700F0ED
:1018D0000F0000F1E02080F8141D704702E008C8F6
:1018E000121F08C1002AFAD170477047002001E09A
:1018F00001C1121F002AFBD170472DE9F0411646A5
:101900000F460446002503E03946B047641C6D1CB1
:1019100020780028F8D12846BDE8F08138B5044683
:1019200000904FF47A73012269460448FFF7D2FB16
:101930000220FEF7D1FC204638BD0000A0000020A8
:10194000FEF708FEFFF776FDFFF7E6FCFFF724FD44
:101950000848FFF717FAFFF74BFD074C6420E080BB
:101960006420FEF7B9FC2089401C20810248FFF763
:101970000BFCF5E7080000206C00002000000000D0
:10198000000000000102030406070809000000002F
:1019900001020304B4190008000000206C000000DC
:1019A000DC180008201A00086C0000207C040000ED
:1019B000EC1800080000000000000000000000001B
:1019C0000000000000000000000000000000000017
:1019D0000000000000000000000000000000000007
:1019E00000000000000000000000000000000000F7
:1019F00000000000000000000000000000000000E7
:101A000000000000111500080000000001000000A7
:101A100010000000000000000024F400000000009E
:04000005080001AD41
:00000001FF
